:10000000B04B0020E13A000065D50100CD3A000078
:10001000CD3A0000CD3A0000CD3A000000000000CB
:10002000000000000000000000000000993B0000FC
:10003000CD3A000000000000453B0000CD3A000032
:10004000353D000005380100353D0000353D00001C
:10005000353D0000353D0000353D0000353D0000D8
:10006000353D0000353D0000353D0000353D0000C8
:10007000353D0000353D0000353D0000353D0000B8
:10008000353D0000353D0000353D0000353D0000A8
:10009000353D0000353D0000353D0000353D000098
:1000A000353D0000353D0000353D0000353D000088
:1000B000353D0000353D0000353D0000353D000078
:1000C000353D0000353D0000353D0000353D000068
:1000D000353D0000353D0000353D0000353D000058
:1000E000353D0000353D0000353D0000353D000048
:1000F000353D0000353D0000353D0000353D000038
:100100007BB972B90029BEBF00204FF0004106E064
:1001100008BF00281CBF6FF000414FF0FF3000F017
:1001200057B8ADF1080C6DE904CE002909DB002BAE
:100130001ADB00F05FF8DDF804E0DDE9022304B02B
:100140007047404261EB4101002B1BDB00F052F88D
:10015000DDF804E0DDE9022304B0404261EB410137
:10016000524263EB43037047524263EB430300F098
:1001700041F8DDF804E0DDE9022304B0404261EB20
:1001800041017047524263EB430300F033F8DDF85E
:1001900004E0DDE9022304B0524263EB43037047FD
:1001A00053B94AB9002908BF00281CBF4FF0FF31DE
:1001B0004FF0FF3000F00CB8ADF1080C6DE904CE43
:1001C00000F018F8DDF804E0DDE9022304B0704720
:1001D000704700BF034611F8012B03F8012B002ADA
:1001E000F9D17047034613F8012B002AFBD1181AE6
:1001F000013870472DE9F04786468C460846089E30
:10020000154674461946002B40F0C2808542B2FA6A
:1002100082F245D94AB1C2F1200300FA02FC2EFA5B
:1002200003F3954043EA0C0C94404FEA154EA8B2F4
:10023000BCFBFEF8230C0EFB18CC08FB00F943EACC
:100240000C43994528D9EB1808F1FF3704D299459A
:1002500002D9A8F102072B44A3EB0903A4B2B3FB14
:10026000FEFC0EFB1C330CFB00F044EA0344A042EE
:1002700014D92C190CF1FF3304D2A04202D9ACF1ED
:1002800002032C44241A43EA07401EB1D440002341
:1002900034607360BDE8F0874746DDE76346F1E709
:1002A00092BB431B01214FEA154EAFB2B3FBFEFCDC
:1002B000200C0EFB1C330CFB07F840EA0343984567
:1002C00062D9EB180CF1FF3004D2984502D9ACF199
:1002D00002002B44A3EB0803A4B2B3FBFEFC0EFB0D
:1002E0001C330CFB07F744EA0344A7424ED92C19F0
:1002F0000CF1FF3304D2A74202D9ACF102032C4423
:10030000E41B43EA0040C0E7C2F1200320FA03F1F6
:10031000954090402EFA03F303434FEA154EAFB2D7
:10032000B1FBFEFC0EFB1C10190C0CFB07F841EA9C
:100330000041884504FA02F422D969180CF1FF3013
:1003400004D2884502D9ACF102002944A1EB08018E
:100350009BB2B1FBFEFC0EFB1C110CFB07F743EA42
:1003600001439F420ED9EB180CF1FF3104D29F429A
:1003700002D9ACF102012B44DB1B41EA004192E7B8
:100380006046E3E76146F7E76046A3E76346B7E701
:10039000834206D916B9002108467BE7C6E900E08A
:1003A000F9E7B3FA83F78FB9834201D3724508D8CE
:1003B000BEEB020460EB030301209C461EB9002142
:1003C00068E73846FAE7C6E9004CF8E7C7F1200CC1
:1003D000BB4022FA0CF41C432EFA0CF120FA0CF369
:1003E000B84001434FEA14490EFA07F5B3FBF9F898
:1003F0001FFA84FE09FB18300B0C08FB0EFA43EAC7
:1004000000439A4502FA07F240D9E31808F1FF3099
:1004100004D29A4502D9A8F102002344A3EB0A03AF
:1004200089B2B3FBF9F809FB183308FB0EFE41EA69
:1004300003418E452CD9611808F1FF3304D28E4553
:1004400002D9A8F10203214443EA0040A0FB02982C
:10045000A1EB0E014145CE46434602D306D14D45A0
:1004600004D2B9EB020E68EB04030138002EA6D0CB
:10047000B5EB0E0261EB030101FA0CFC22FA07F363
:100480004CEA0303F940C6E9003198E74046C5E766
:100490004346D9E7000000002DE9F04F804687B0C1
:1004A0000D46214FBB68029304AA5B6800213846C1
:1004B0009847002831DBDDE9044BA8FB04230392B5
:1004C00008FB0B380398DFF8649015A3D3E90023E9
:1004D0004146FFF765FE039B4FF0FF3A9A4579EBE3
:1004E0000803064619D3A5FB044305FB0B35294633
:1004F0000BA3D3E900232046FFF752FEA24579EB78
:100500000505034609D3864207D300220092029ACA
:100510000021146838463246A04707B0BDE8F08F86
:1005200000CA9A3B000000001C080200FFC99A3B69
:100530002DE9F843D0E90738856903EB08042F3427
:10054000A5420F46164619D8DFF86C80A3FB0801B8
:1005500017A3D3E90023FFF723FE0346601BA0FB8C
:10056000080123F07F4412A3D3E90023FFF718FE0C
:1005700020F07F403C603060BDE8F883DFF83890C1
:100580000BA3D3E90023A5FB0901FFF709FE20F027
:100590007F440A480A2106A3D3E90023E8FB0901A6
:1005A000FFF7FEFD20F07F403C603060BDE8F8833F
:1005B0008D49FD1A0700000000CA9A3B00166BF136
:1005C000002800F032812DE9F04FC34C94F85E30E2
:1005D000DA078DB000F16381627F94F8293004EB73
:1005E000820204EB8303166ADF6A0EB3354615F800
:1005F000020BC0F380100AF00FFE0368C6F8023049
:100600008388AB8033785B0606D50621284609F03F
:100610000FFA002800F045813D4615F8020BC0F3A3
:1006200080100AF0F9FD0368C7F802308388AB80B8
:10063000337813F00E0F40F0908063691BB10C20EB
:100640000DB0BDE8F08F0BF08FFC8146002800F064
:1006500035810BF095FC8246002800F02C810EF0CD
:100660007FF90546002800F02B81C06E4FF6FF731E
:10067000AB8405F1100B002800F0198105F1600230
:1006800005F15C0109F0E0F9B5F8583023F4EF63A7
:1006900023F0070343F48C7343F00103A5F85830AB
:1006A00095F8373003F03F0363F07F0385F8373068
:1006B00095F8723023F0070385F8723095F83C30D6
:1006C00023F00F034FF0000885F83C304FF4C023AF
:1006D000C5F86E312846C5E91288C5F86C80A5F8C2
:1006E000708085F83980A5F82A80C5F82E80C5F875
:1006F0005080A5F84081A5F87481A5F86A810FF0B3
:10070000D9FF85F84481C5F848910EF0B1FB95F802
:100710007C3160F3020385F87C310EF0AFFB95F875
:100720007C3160F3C50385F87C3195F8423168F37C
:10073000410385F8423105F1C4000FF0ADFDC4E975
:10074000159AC4F814B0C5E9028885F800802D61B7
:1007500013F0A2FE002840F0A680237E0121C3F3FF
:1007600042030DF12B008DF82B3009F009FB0246F6
:1007700000285CD0394630460DF00AFC5749584BEA
:10078000B4F85C70A0FB0101C0184FF0000550A345
:10079000D3E9002341F10701C4E902552570FFF7B1
:1007A000FFFC60600AF0FCFC00F109083FB93578F5
:1007B00005F00F05A5F10105B5FA85F56D09207E57
:1007C000636865F3000010F00105207636D0454AD5
:1007D0000992002010600225434A444F04930BAE57
:1007E000019305920321CDE902000694434600904F
:1007F000089607972A460B950AF0D4FB31460BF072
:1008000047FCA0B93A4905914AF2D8330093CDE9A3
:100810000300CDE90100079708960694434601229C
:1008200003210B950AF0A2FB2EE00DF005BB6369D6
:10083000002B3FF404AF0DF0BBFA00E7294A2D4826
:10084000049303F247130694029591211360A7FBCA
:10085000000301FB0731254B0793234B05934FF60C
:10086000FF730992022703930BAE19A3D3E9002368
:100870000B970896FFF794FC4346CDE900503A46A3
:10088000284603210AF08EFB31460BF001FC0028BC
:10089000CDD194F85E3043F0010384F85E3000203F
:1008A000CEE61220CCE60DF083FA0320C8E605F16F
:1008B0006400E866E2E648460BF05CFB0720BFE612
:1008C00050460BF063FB48460BF054FBF6E700BFC5
:1008D0008D49FD1A070000002020002000CA9A3B25
:1008E0008C49FD1A1420002005E0000001B300002F
:1008F00015DB0000002AE78470B5037E8AB0C3F3DD
:1009000042030D46044601210DF1230016468DF8E1
:10091000233009F035FA3146024628460DF038FBFF
:100920001F49204AA0FB0131981841F107011AA381
:10093000D3E90023FFF734FC63689842054621D2CF
:100940001B1A00220192184A0293184BA21AA3FB09
:1009500002320221920900230A4409AE0991144986
:100960000591CDE903330321D2B2069600931846D0
:100970000AF078FB31460BF08BFB38B9656000203C
:100980000AB070BDFBD9C21A0023DBE70C200AB005
:1009900070BD00BFAFF300808D49FD1A0700000055
:1009A00000CA9A3B8C49FD1A20200020ABAAAAAAB3
:1009B00001B30000000000002DE9F04F06468DB0A5
:1009C0008A46012002219946154615F007FC0022AF
:1009D0000B900221012009F087F83B494FF4C072C7
:1009E000304609F011F8C71C384B0093FFB201964E
:1009F0004B463A46012100200AF08EFB10F0FD0F15
:100A00000ED0334A3349344840F6C3031BF032FF5B
:100A1000002383F31188BFF36F8F0323184602DF8F
:100A20002E4CA5FB044526A3D3E9002320462946E6
:100A3000FFF7B6FB0896069673680493284B20F0E0
:100A40007F48A8FB0331E01A264B07934FF00702BB
:100A5000254B059302FB08114FF6FE7365EB010170
:100A600003934FF47A720023FFF79AFB4FF0000BC9
:100A7000CDE90180CDF800A04B463A460121584609
:100A80000AF074FA10F0FD0F0DD0114A1149124806
:100A900040F6D8031BF0EEFE8BF31188BFF36F8F87
:100AA0000323184602DF0B9B13B90DB0BDE8F08F8E
:100AB0000122022110460DB0BDE8F04F09F014B834
:100AC0008D49FD1A07000000D00E002091E80000BB
:100AD00020190200041A02006C12020000CA9A3B9C
:100AE0008D49FD1A31E80000D934010000000000F2
:100AF0002DE9F0418468A28C4FF6FF739A428CB0C6
:100B000000F09D800546204610F048F82B7D012B13
:100B100000F03881022B00F02B81002B00F00A81BD
:100B200094F84471002F40F026812B8AE68D94F9C9
:100B30003720CDE90A77002B00F08480002AC0F22C
:100B40006B810023A4F87031AB7CA28D03F003030A
:100B5000551C012BADB200F0E980B4F87431002BC4
:100B600000F01681AB4240F270815B1B9BB2062BFA
:100B7000A4F874314FF000028CBF00230123E285FA
:100B80001F4694F83C2063F3820284F83C202946F7
:100B90000DF1270220460FF0C9FD743000F04F819F
:100BA000B4F86E312BB1AB4240F227815B1BA4F845
:100BB0006E31B4F86A312BB1AB4240F215815B1B48
:100BC000A4F86A31E58D17B9AE4200F00481013511
:100BD000ADB294F8B53013F0010650D1DDE90A1337
:100BE0000A46002B40F00781002900F0F6801E46DF
:100BF0001846A28C24690694CDE903570332B04D00
:100C00000290CDE90016D2B20121002005950AF02C
:100C100029FA10F0FD0F12D00BF064FA84420ED0C6
:100C2000A84AA949A94840F286531BF023FE002395
:100C300083F31188BFF36F8F0323184602DF0CB0D4
:100C4000BDE8F081002AB8BF84F8B970AB7CA28DF2
:100C500003F00303551C012BADB267D0B4F870311B
:100C6000002B3FF47AAFAB4240F2F4805B1BA4F858
:100C70007031B4F87431002B7FF474AF81E794F9CC
:100C800037206FF30003002A84F8B530C0F29B8050
:100C900094F85800C0F3C00100F0070013F010FAF8
:100CA00094F8582094F8593002F003012831C2F327
:100CB0004002C900D14003F003022832C3F34003CD
:100CC000D200DA40E38B03F23F13B1F5A07F2CBFD3
:100CD0005B1803F5A073B2F5A07F2CBF9B1803F53A
:100CE000A07303447A4A7B480721E3FB00211046A6
:100CF00071A3D3E90023FFF753FADDE90A1320F0CB
:100D00007F4260686260904235BF161A801A0020E8
:100D100000260A46002B7FF46CAF56EA010C7FF4E4
:100D200068AF002859D019461E4662E70023A4F890
:100D3000743126E794F8723003F01803182B7FF40F
:100D4000EFAE218DB4F86C218B1D9A42C4BF931F66
:100D50005B1AB4F86811CCBF9BB21346994200F0FD
:100D60009280A4F86831A4F86A31A4F86E21D7E61D
:100D70003D2784F84471394620460CB0BDE8F04167
:100D80000EF05AB90023A4F86E31A4F86A31C7E610
:100D9000E28C052A97BF013240F2E2434FF4FA7326
:100DA00092B203FB02F2B4F8723142F2107101FB0D
:100DB0000323013BB3FBF2F39BB2A4F87431002B85
:100DC0007FF4D0AEDDE694F85900012100F0070071
:100DD00013F078F964E73D46FBE6002D3FD000268E
:100DE00011463046334604E70023A4F86A31204612
:100DF0000FF03EFDE6E63046FBE60BF007F9014654
:100E000080B30023A4F86E31A38CC3801B2303712D
:100E100000680BF0CDF8CCE694F8B93033B3013B61
:100E200084F8B93004F1C40840460FF077FA80B373
:100E300040460FF073FA80B30023E38581E69DF806
:100E4000271020460EF0F8F8F9E6082120460EF0AB
:100E5000F3F8F4E63E2120460EF0EEF8EFE6002F20
:100E6000BDD1ECE60123A4F86E31A2E60AAA0BA9D3
:100E70002846FFF75DFBDDE90A231343D2D0237830
:100E800084F8B930CEE7B4F86E1100297FF448AE8B
:100E900069E7FF200EF092F8CAE70246D4E917018D
:100EA00008F0EAFD0028C7D194F83C301B0744BF86
:100EB000238DE38545E600BF8D49FD1A070000003C
:100EC000EDE7000020190200DC1A02006C1202009B
:100ED0008C49FD1A00CA9A3B2DE9F04F87B0B0F853
:100EE0004071BDF84C900091CDE90423B0F8043175
:100EF000BDF840A01F44BFB20446A7EB090390F819
:100F00005800D4F8FC809EB2BDF844300193C0F381
:100F1000C001BDF84830039600F00700029313F0BB
:100F2000CFF8E58C052D40F2CB8015FB06F5ADB270
:100F300040F2E24BBAF1050F40F2B68094F8592026
:100F400094F8581002F003032833C2F34002DB0088
:100F5000D34001F003022832B3F5A47FC1F340016E
:100F60004FEAC20222FA01F238BF4FF4A473B2F57D
:100F7000A47F2CBF9B1803F5A47303F2D513184468
:100F80007D4A7E4B0721E0FB023118464FF0961355
:100F9000E3619623238476A3D3E90023FFF700F9C6
:100FA000564620F07F4040F2E2430BFB05F103FB85
:100FB00006F64B1E3344B3FBF6F31FFA83FB06FB26
:100FC0000BF3994260605D4660D26B48591AA1FBF1
:100FD000000167A3D3E90023FFF7E2F820F07F4088
:100FE0008044B4F80421B4F84031A9EB07094D441A
:100FF000ADB213442B44A4F84031638D13441D4417
:1010000094F837306585DB0962D15D4A5D495E48F9
:1010100040F6A3131BF02EFC002787F31188BFF3C3
:101020006F8F0323184602DF3546019B2385029B01
:10103000A4F8723131462046A4F826A00FF0B2FB86
:10104000524B218D3344881DB3FBF6F39AB2904284
:10105000A4F86C2104D2C1F57F41FA310A4492B25E
:10106000009BA4F8682113B10023A4F8743143460F
:101070002A4639462046FFF79FFC94F8423143F058
:10108000010384F8423107B0BDE8F08F3A48C91A2D
:10109000A1FB000136A3D3E90023FFF781F820F07C
:1010A0007F40A8EB00089CE74FF096130AF1010679
:1010B000E36196232384B6B20A204FF4FA7374E7EF
:1010C000039B013515FB03F5ADB24FF4FA7B31E715
:1010D000216CA36C284F01FB0233039A01FB1233EE
:1010E000A3640023C4F8C03013F02AFA054694F82C
:1010F000B800C0F3420013F025FA054406FB05F5DD
:10110000234B1E4805F5742505F23F25A3FB053545
:10111000AD0CA36C25640BFB05FB72085B44963A8F
:10112000934228BF1346C4E91123049B40F2E249CD
:1011300009FB03F307212365EBFB07010CA3D3E9AC
:101140000023FFF72DF8134B059AA8EB0008A3FB2B
:101150000230800A09FB00F0A0FB070104A3D3E9D9
:101160000023FFF71DF8751B20F07F475DE700BFE8
:101170008D49FD1A0700000000CA9A3B8C49FD1AF0
:1011800020190200481302006C1202007FC3C9013B
:1011900083DE1B435917B7D12DE9F04F134615468F
:1011A0000A6853F8087BD2F800A0B0F82EC00246B7
:1011B000044652F82EBBD0F81E0094F81C900E4640
:1011C0009178628CA5F808C09970D4F82A306B60C9
:1011D00091B0D4F83A30C5F82230ADF83C2094F8FC
:1011E0003E2085F826200E9010AA12E9030005F192
:1011F00022030C90ADF834101846052108F0C0FD0C
:1012000095F8273000F03F0060F3050385F827309C
:1012100094F83F30C3F3040285F82820A28EEA82B6
:101220000128C9F380190DD903F01F031B3303F004
:101230001F030B2B06D892B2063A92B240F67A43BD
:101240009A4217D90022CAF8082095F82C3062F388
:10125000000385F82C300126E568267158462146A2
:101260000AF09AFE28682E71294611B0BDE8F04FA9
:101270000AF09EBE336800215960E38EB5F81680EF
:101280002B8340F2E24303FB08F83846638E0B934E
:101290000FF09CFA94F83F2097F8B810520962F3C7
:1012A000430187F8B81013F04BF90A9097F8B8008B
:1012B000C0F3420013F046F90A9A104408FB00F00C
:1012C000B54A00F5742000F23F20A2FB00204FEA4F
:1012D0005802800C963A28636A6394F8312040F2F1
:1012E000E24302FB03F36B64238FA7F8723141469C
:1012F00038460FF057FAA94BA94AC7F8782143445A
:10130000B3FBF8F39AB2A7F86C21298B881D8242AF
:1013100004DDC1F57F41FA310A4492B22346A7F8B1
:10132000682113F81C2FC2F340120A92DA0700F169
:101330000C81BDF83430A4F823300C9884F81E904A
:101340004FF48073C4F81F00A383EB8AE3842B8BD4
:101350002385B7F87231638597F8B830C3F3420339
:1013600084F82C3038460DF007FBA882E080214637
:10137000584674680AF010FEAB8AE3801C23237180
:101380000A9BD4F80090002B40F0D3800A9B23776F
:10139000214648460AF00CFE95F8499095F848B069
:1013A00009F007090BF0070B0121484612F08AFEED
:1013B0000BF003032833CBF3400B09F00302DB00EF
:1013C00023FA0BF32832B3F5A47FC9F340094FEA9F
:1013D000C20238BF4FF4A47322FA09F2B2F5A47F17
:1013E0002CBF9B1803F5A47303F2D5130344DFF855
:1013F000B49104466C480721E3FB09014FF09613B2
:10140000C5E9033362A3D3E90023FEF7C9FE20F048
:101410007F407860F3680B982A6B40F2E24101FB51
:10142000003101F2B341891A0C1B01200221A8EB03
:101430000208002208F058FB50460CF09FFF0246BD
:10144000A4FB0901144652A3D3E90023FEF7A8FE2A
:10145000CDF804A0B3685549009120F07F4BA21C41
:10146000363BD2B25B440121002009F055FE012831
:101470007AD09AF81830DB0753D438460DF07CFA4E
:10148000484BA8FB0389044641A3D3E90023404607
:101490004946FEF785FE464BB668464A079220F05D
:1014A0007F45A5FB0331B8EB0300434B05934FF495
:1014B000F873069708937B684FF0000ACDE903A301
:1014C0004FF0070303FB051169EB01014FF47A723A
:1014D0000023FEF765FE0334363EE4B2CDE9015049
:1014E000CDF800B0334622460121504609F03EFDBA
:1014F00010F0FD0F0DD0314A3149324840F2F1135E
:101500001BF0B8F98AF31188BFF36F8F03231846D5
:1015100002DF01220221104611B0BDE8F04F08F0B1
:10152000E3BA0023012200931846114609F0B2FDE8
:10153000A3E795F8273043F0400385F82730281DAE
:1015400012F0EAF80123288521E71C4A1E491D48AC
:10155000FD231BF08FF9002383F31188BFF36F8FF6
:101560000323184602DFE4E60AF0BCFD824580D082
:10157000124A1649134840F29B231BF07BF90023C3
:1015800083F31188BFF36F8F0323184602DF70E7E0
:101590008D49FD1A0700000083DE1B437FC3C9018C
:1015A000404B4C0000CA9A3B8C49FD1A993401000B
:1015B0008D49FD1A65340100D93401008C1F0200E9
:1015C000041A02006C12020094160200E81F0200C6
:1015D000F0B5C468636883B00546002B4FD114F0A2
:1015E000F5F9002014F016FA0021084614F004FA68
:1015F00000222521082014F041FA3D4B019301A857
:1016000014F028FA3B4940F25B6014F0EFFA237AB9
:10161000C3F3420262F306132372204613F098F9D3
:1016200027682E68384612F0F3FC06446A6806F113
:101630000901012014F002FC14F0C0FC20460CF05B
:10164000A9FE811C3246C9B2384612F0E3FC0546B9
:1016500000BB204612F084FC10B9002003B0F0BD9E
:10166000254A2649264840F229431BF003F985F311
:101670001188BFF36F8F0323184602DFEDE793F85D
:101680002C309B07ABD01F48214614F073F914F09F
:1016900041FAE2E7184A1C49194840F211431BF08D
:1016A000E9F81A4B0721A5FB030301FB05310EA343
:1016B000D3E90023FEF774FD1549024615481BF0D7
:1016C000D9F8002585F31188BFF36F8F03231846DF
:1016D00002DF1148214614F04DF914F01BFA6FF0A7
:1016E0008B00BBE7AFF3008000CA9A3B000000000C
:1016F000D6BE898E55555500D821020054140200DB
:101700006C1202009D410100481302008D49FD1A30
:10171000882202005C220200514501000000000006
:101720002DE9F043C468A28A4FF6FF739A4283B052
:1017300000F01181064613F0C1FB3389628B208CC7
:10174000A3831A4492B2104494F82730E28380B203
:10175000411C21845D064FF00001618304F12201E8
:1017600000F1A78003F03F000B4694F8281000908A
:1017700004F1290011F088FF0546D4E90C31A26B71
:10178000A08BA36303FB0022E36B8A4294BF9B18E8
:101790005B188B4228BF0B46626C216CE3630A44E2
:1017A00094F849306264002294F82C10226494F872
:1017B0006220C3F3020363F3061112F0040284F8FB
:1017C0002C1000F08A8014F001F9002014F022F9A6
:1017D000201D14F03FF92389A17A40F25B6043EAAF
:1017E000014114F003FA284612F026FC2146604815
:1017F00014F0C0F8A08914F015FB94F8482094F870
:101800004900C2F3C003002102F0070200F0070004
:1018100014F052FA204613F027FCD4F80080376801
:10182000404612F0F5FB0744726807F109010020F9
:1018300014F004FB814614F095FB002014F0ACFB7F
:10184000E36B94F8490003F12F02636C00F007008A
:10185000012103EB420514F04FF94D44054494F87F
:10186000490000F00700022835D004280CBF4FF4CF
:10187000BC73282301211D4414F040F9284414F0BE
:1018800063FBA18A03313A46C9B2404612F0C2FB5B
:101890000546B0B1B37A13F002062CD000253548C6
:1018A000214614F067F814F035F9284603B0BDE876
:1018B000F0830A4603F03F03218D11F031FF054606
:1018C0005BE7204612F04CFB002835D10025284666
:1018D00003B0BDE8F0831823CCE7D4E9130108F086
:1018E000CBF800287FF46FAF94F8623043F0040324
:1018F00084F8623067E7204A2049214840F25913B2
:101900001AF0B8FF1F480721A5FB000301FB0531B2
:1019100015A3D3E90023FEF743FC1B4902461B48ED
:101920001AF0A8FF86F31188BFF36F8F03231846C0
:1019300002DF6FF08B05B2E70F4A154910484FF4EC
:10194000B3731AF097FF85F31188BFF36F8F0323EA
:10195000184602DFBAE70F48214614F00BF814F0DE
:10196000D9F8B3E7AFF3008000CA9A3B000000004B
:10197000D15201007D4101004C23020048130200B6
:101980006C1202008D49FD1AA02302005C220200A5
:10199000541402009D410100032973B50546144605
:1019A00071D8002A40D0072A5CD15A681C683A488E
:1019B000D1171346C4FB0031012B71F1000225DB66
:1019C00000F56E1000F65D70181831A3D3E90023FE
:1019D00041F10001FEF794FB80B202281ED00428DA
:1019E0001ED008281ED0102833D103232B492A6982
:1019F00051F823101161526814691B013022232110
:101A00002846A44602B0BDE8704060472448181834
:101A100061F100011EA3D3E90023DBE70023E5E722
:101A20000123E3E70223E1E71A881E4B33F8021B88
:101A30008A420BD12E6973680DF107029B68202141
:101A400028469847002807DA02B070BD01340B2CF5
:101A5000ECD16FF01500F7E79DF80720130704D4C9
:101A6000082C05D16FF08500EEE70A2C08BF092489
:101A7000736802F00F0242EA0412DB68D2B220213E
:101A800028469847E0E702B0BDE8704016F09EBBDC
:101A90003AA395000000000040420F00E003002040
:101AA000632EB5FFB427020080B50D4B0D4A1968AF
:101AB0000D4B00AF88B0012908BF13466A460B4999
:101AC000C2E905134FF400739383094B42F8103FAA
:101AD000084800234FF4E65101F06AFABD4680BD84
:101AE00018140020CD270200CA270200D9270200BF
:101AF00003000001E40B020038B5530402F40005B2
:101B000025D5284C1AF099FCD4E90023821A61EB00
:101B10000303782A73F10003C4E9000140DB1AF0E3
:101B20008CFC214B1A68032AC4E900010FDC1A68F7
:101B30001E491F4801321A60FEF7AEFC40F65D7286
:101B400000231C4819F03CFB1B4819F08BF83DB3EF
:101B50001A4C1AF072FCD4E90023821A61EB0303D9
:101B6000782A73F10003C4E9000119DB1AF065FC5F
:101B70000D4B1A68002AC4E9000111DD1A680B49EF
:101B80000B48013A1A60FEF787FC40F65D720023AD
:101B9000084819F015FB0848BDE8384019F062B84C
:101BA00038BD00BF6007002080010020B0710B002D
:101BB00060E3160028070020640500205807002075
:101BC00008B51CF0BCF8044B1860044A0448BDE892
:101BD000084003211BF0AABA14140020F1270200C8
:101BE000E40B02000B4621B1034A044801211BF01B
:101BF000A6BAFFF7E5BF00BFFF270200E40B020013
:101C000013B50B46124C1348134A03211BF097FAE5
:101C1000206818B104F0DAFD0023236001240F4B83
:101C20000F4910480094022204F002FA034638B12A
:101C30000D4A0848214602B0BDE810401BF07FBAAB
:101C40000A4A0448032102B0BDE810401BF06EBAF6
:101C500014140020E40B020027280200CC0D02001F
:101C6000D40D0200B80D02004A28020078280200B4
:101C700082B000238DF804300093104B1A680123C2
:101C8000C2F1040203FA02F28DF804200C4A127821
:101C9000042A01460BD80B48083200786A44C0F188
:101CA0000400834012F8080C034302F8083C009833
:101CB0009DF8043008600B7102B07047800100206D
:101CC000FD2B0020FC2B002007B504210DEB0100AB
:101CD00002F078F9019A0523B2FBF3F303EB8303D7
:101CE000D21A044B1A70044B00221A7003B05DF82C
:101CF00004FB00BFFC2B0020FD2B0020F0B5324D73
:101D0000297887B029B1314807B0BDE8F04018F014
:101D1000A9BF2F4C23780133DBB2042B237026D9C3
:101D20002C4E3368013333602B4B1F685FB318228E
:101D300068461EF01EFC294B6946CDE9013638463F
:101D40000423ADF80C3007F09DFA3268002A0CDD50
:101D5000052392FBF3F303EB83039A4205D1204A58
:101D60001368642BC4BF323B1360FFF7ADFF1D4BFC
:101D70001D4A1B6812789A420BD12378042B08D194
:101D800001232B70BFE7194A194803211BF0CEF934
:101D9000DBE70E4818F066FF114B1C684FF4004556
:101DA00024EAE47440F2E73000214FF47A72002311
:101DB000C4FB0501FEF7F4F902460E480B4607B0D6
:101DC000BDE8F04019F0FCB9FE2B002064050020AE
:101DD000FD2B00201814002014140020900D020088
:101DE000A401002080010020FC2B00209D2802007F
:101DF000E40B0200F80600202DE9F04F85B002AF99
:101E000015F098F90446854D28461DF0B9FE0028C6
:101E100040F0AB80296882481AF01FFD002003F0D3
:101E2000DBFB0346002800F0BA807E4A7E48012191
:101E30001BF085F97D4E30461DF0A2FE05460028B8
:101E400000F0E3807A497B487B4D1EF0FEF87B4929
:101E50007B481EF0FAF82E684FF000094FF4004C52
:101E600026EAE676494640F2E730C6FB0C014FF41D
:101E70007A720023FEF794F902460B466D4819F07A
:101E80006BF949464846FEF707FB6E4B4FF47A72F2
:101E90004946204615F000F900216B4EDFF8AC8171
:101EA000DFF8ACA14FF460301EF0D6F902233360A6
:101EB0004FF4FA73C8F800902B60FFF705FFDFF8C6
:101EC00094914FF0FF334FF0FF32504618F004FF6B
:101ED00099F80030002B00F087805F495F48FEF7DB
:101EE000DBFA40F65D720023554819F069F90121CB
:101EF0005B4B009140F6B832204615F08DF800217A
:101F00004FF480401EF0A8F9564B4FF47A7200212E
:101F1000204615F0C1F800214FF480201EF09CF9F6
:101F200002234FF0000B33604FF4FA73C8F800B08F
:101F300089F800B02B60FFF7C7FE504618F092FEFC
:101F40002B684FF4004E23EAE37C594640F2E73019
:101F50004FF47A720023CCFB0E01FEF721F9024602
:101F60000B46344819F02CF9ABE73F481AF077FAE2
:101F70003E481AF074FA3C481AF088FA3B481AF0C6
:101F800085FA3B493B4B4B603B4B8B60AB68DB6955
:101F9000002B3FF443AF0122284698473EE7374ADB
:101FA0002148032101251BF0C1F8354B354936483E
:101FB0000095022204F03CF8034608B1334A35E7A5
:101FC0006D4688B002AA32495161324991614FF49D
:101FD00000719183304942F8101F13484FF4E651C5
:101FE00000F0E6FFAD4625E73846FFF741FE012148
:101FF00000913B464FF0FF32204615F00DF80021CE
:1020000040F267601EF028F95BE7316804481AF077
:1020100024FC28460C37BD46BDE8F08F7C07020043
:10202000BD280200D4280200E40B02001C080200B4
:10203000FD1C0000F8060020A401002057C4010088
:1020400028070020582902008001002018140020D1
:1020500064050020FE2B0020801A060000350C00CD
:102060002E04002060290200EC0D0200E40D0200A5
:1020700008140020F91A000000408000F328020034
:10208000CC0D0200D40D0200B80D020000290200A0
:102090002A2902004F290200030000012DE9F04F18
:1020A00091B08407009302F004030293C2F3C203C9
:1020B00003F10103DDF86880039205460E4605939F
:1020C00040F0BA81041D30B1072909D86FF01B0018
:1020D00011B0BDE8F08F01F007063444C6F10806E0
:1020E000009B4FF00009591E4FF0040A4FF0FF33D8
:1020F0000193CDF810904F46CB4653460DB1009A50
:1021000022600598002800F3E8809848009A8242EF
:1021100003D397488242C0F0E080039AA4EB050EF7
:1021200092074FEA9E0000F103810F2F00F2B18069
:10213000002D00F0058107F140020DEB020C019A21
:102140000CF8200C0CF8102C049801300490E7E0F7
:102150007A285DD84B280ED8472859D829282DD859
:10216000252852D054D820287AD02338D0F1000B1B
:102170004BEB000B74E04C382E2849D8DFE800F018
:102180007048484848484848484848484B484848A4
:10219000484848484859484B4B595959704B6D4825
:1021A0007048184B184848827F4B48484B487F007E
:1021B00000204FF0000B4FF0040A38E02A38C0B27C
:1021C000012202FA00F010EA0E0F49D110F0625C11
:1021D0002FD110EA020B43D06046013C5444B4FBBB
:1021E000FAF40AFB04F4002D61D0A3EB050CA4441F
:1021F000B4453FF66BAF002868D1042B47D158F89F
:10220000043B2360043404232AE0019A013A01923A
:102210004FF0000B24E011F8010C6C2834D111F8B8
:10222000023C00206C2B8346C5D14FF0080A534670
:10223000D3E708F1070828F007080734F8E802ABED
:1022400024F0070435B106982044B0423FF63EAF73
:10225000C4E900AB08344FF0000B4FF0080A5346B6
:1022600011F8010F002878D0BBF1000F7FF470AF98
:102270002528F5D1019B013301934FF0010B4FF05D
:10228000040AECE7584694E700208346A5E7082BAC
:1022900002D06FF015001BE708F1070828F00708C7
:1022A000F8E80223C4E9002308340823D8E768B912
:1022B000042B02D108F10408A4E7082BE9D108F1A6
:1022C000070828F0070808F10808EDE7059A013A21
:1022D000059258F8042B009210E7039A900720D536
:1022E000A4EB050E4FEA9E004FF0010CBEF5007FF7
:1022F000CFD20F2FCDD8F5B107F140020DEB020E72
:10230000C0B2019A0EF8200C0EF8102CBCF1000F90
:102310003FF41AAF60F07F000EF8200C09F10109BC
:102320000137C5F10802043406924FF6DA7E97E7CA
:102330004FF0000CDAE7BCF1000F01D00136EFE7F7
:10234000029802360028EBD10098CDE90631FDF75E
:1023500049FFDDE906310644E2E7631BB3F5806F10
:1023600097D23DB9A6F10804E018B1E68C06020048
:10237000CC4E0200029A28609B082B709DF810300A
:10238000C2B1EB7085F80290B9F1000F05D008A832
:102390000022C5F1010C97420ED1C5F101030DF1E8
:1023A00020084FF0000A01930DF1300B574512D170
:1023B000601B8DE66B70E5E710F8013B190608D548
:1023C0000CEB040EB64503F07F033FF67FAE04F836
:1023D000013B0132DFE7B9F1000F03D098F900208B
:1023E000002A17DB029BD3B11AF80B2004F8012B4B
:1023F0000022019B18191044B0423FF667AE98F8CE
:10240000000004F8010B0099039220461EF089F8A1
:10241000039A14440AF1010A08F10108C6E798F882
:10242000002055F822300093029B45F82230009896
:10243000FDF7D8FE421CDCE76FF00D0048E600BF58
:102440002DE9F04F97B000AF90F802A0D7F880B018
:102450003B62CBF3C0030446FA62BB61894641B9D3
:10246000457800780AEB800020444D4517D8A0EB52
:102470000409E378FB61BAF1000F02D01BF0010FF1
:1024800016D1FB6953BBFB6A1BB13A6A4946204629
:1024900098474D4628465C37BD46BDE8F08F461C40
:1024A0003046FDF79FFE0130304409F10109DCE7B9
:1024B000237862687A62FA6A9900796104EB830191
:1024C000002A40F000814D460E4601EB0A094FF00C
:1024D00000084E454CD101EB0A0610E01BF0020F3C
:1024E000D1D023789A007A6162687A62FA6A04EB42
:1024F0008301002A77D14D4601EB0A0690461BF076
:10250000050F0CBF02230123FB62FB6906EB430AA4
:102510000BF00203BB625645BCD016F8021B16F83E
:10252000013C54F82390994B994502D3984B994517
:1025300036D3BB69002B40D0786A1AF065F90028C1
:102540003BD0E9468AB06A46924B53617B6AC2E946
:1025500006314FF4007313848F4B42F8103F8F48BD
:1025600000234FF4125100F023FD023DCD46D2E787
:1025700016F8013BF96254F82300FDF733FED7F853
:102580008430F96A01304BB1D7F8883098453EBFA6
:10259000D7F8843023F8180008F10108054498E7BB
:1025A000BB6923B1786A1AF02FF90028C9D11BF052
:1025B000010F05D1FB6AED1AADE7BB6A002BAAD06B
:1025C0004846FDF70FFED7F8843053B1D7F888306E
:1025D00098453FBFD7F88420431C22F8183008F1F3
:1025E0000108054497E7BAF1000F72D01BF004060A
:1025F00072D0D046002607F1480052463B61B962CE
:102600001DF08FFFB96A3B6901EB0A02BA62FA69F1
:10261000F9695200FA60BA6A02EB41023A610BF0C2
:102620000202BA603A69B96A8A4257D162787A621C
:102630001BF0020F32440CBF4FEA580100211BF07F
:10264000010FD2B240F09F801BF0040F14BF404630
:102650000020BB616270A070E1703A6A7969FB6A20
:1026600020469847051EFFF615AFBB6923707B6AAD
:102670006370FB69E37041463A6AFB6A84F802A022
:1026800007F148009847B0F10008C0F2BB807B69B1
:102690003A6AA9EB0A01C91AFB68C91AD7E90A0301
:1026A00098470028C0F2B080A84408EB00054FF01E
:1026B000000B07F1380AB34572D300213A6AFB6A6E
:1026C00008469847E6E656464FF0000807F13800FE
:1026D00093E75646D04697E7B04695E7BA6A12F8B0
:1026E000021BBA6212F8015C284A54F82500904295
:1026F00002D3274A90421ED3BA6932B1786A7B600E
:102700001AF082F87B6800288CD1BA6802BB08F105
:10271000280207F1300C08F10100944407F1580237
:1027200052FA80F008F102080CF8101C5FFA88F8E1
:1027300000F8105C76E7BA693AB1786A7B601AF003
:1027400063F87B6800287FF46DAF1BF0010F09D0A0
:1027500006F1280207F13000711C161806F8205CFB
:10276000CEB25FE71BF0040F3FF45CAF08F1280224
:1027700007F1300008F1010102EB000808F8105CD5
:102780005FFA81F84EE7002063E700BF8C06020085
:10279000CC4E0200A229020004000001640C0200D9
:1027A0001BF80A3087F8373054F82390D7F8843074
:1027B0002BB3D7F888309B4521D2D7F8843033F833
:1027C0001B803A6AFB6A012107F13700984700280D
:1027D0001ADB0544B8F1000F06D14846FDF702FDAB
:1027E00000F101081FFA88F83A6AFB6A4146484638
:1027F0009847002808DB05440BF1010B5BE74FF01D
:102800000008DEE7454645E6054643E6014B18600D
:10281000704700BFA801002080B505460E46174648
:10282000984618F0C9FF03461DF026FFDFF8189000
:10283000044649F80030424630463946A84754F825
:10284000090001F069F900BF080000002DE9F04718
:10285000058B04462807904611D4022905F0070588
:1028600040F0CC8020461AF097FA78B10138218BDD
:10287000042811D8DFE800F0C2106D859500012909
:102880000CBF45F0100545F02005258388F311881D
:10289000BFF36F8FBDE8F08701F0070AAA4500F08B
:1028A000A5800027B9463E46A368002B00F0BC80F7
:1028B00041F00801218388F31188BFF36F8FA1686D
:1028C000002900F0BA800D68002900F0B680D1F828
:1028D0000480334652462046C047002D76D02B68F0
:1028E00029461D46F0E701F007035A1F012A1BD8AD
:1028F000002221F00701062B276889B2C4E90022D3
:1029000009D13B4603E0628B013262831B68002BD6
:10291000F9D141F00201218320461AF03DFA002846
:102920007AD041F0200176E0042B0AD121F0070192
:1029300089B2218320461AF02FFA10B141F020010C
:102940002183218B01F0070AAA454FD00027B94601
:10295000AAE7236921F0070141F00601062DD3F80B
:10296000009021832DD1B9F1000F3FD041F0080133
:10297000218388F31188BFF36F8F3A492046C847F7
:1029800029E021F00701236941F0040189B2042DF7
:10299000D3F804902183E6D000273E464FF0040A86
:1029A00082E721F00701236941F0050189B2052D75
:1029B000D3F808902183D6D000273E464FF0050A71
:1029C00072E700273E464FF0060A6DE72B4687E781
:1029D000B9F1000FD1D1EFF31188202383F31288CE
:1029E000BFF36F8F238B23F008032383258BEA0625
:1029F0002ED525F01003238305F007056669218B8A
:102A0000002EBFF670AF00232768C4E9003321F021
:102A1000070141F001012183218B01F0070AAA453A
:102A20004FF000097FF440AF002F9CD041F0080127
:102A3000218388F31188BFF36F8F002FC8D03D68C2
:102A400039463346524620461AF0D2F92F46F4E76B
:102A5000AB067FF51BAF25F02003238305F00705A8
:102A600000E700BF1DCE01002DE9F047DFF85880D8
:102A7000044607464FF0010914B93846BDE8F0870F
:102A800094FAA4F5B5FA85F509FA05F32E0108EBD9
:102A900005156FEA030A24EA03042B7B002BEBD015
:102AA00058F806301B694BB946440422736828461F
:102AB000196807EA0A071AF0C9FADDE728469847B5
:102AC0000028D9D1F0E700BFF40C020030B510495E
:102AD000104889B000221DF093FC0F4D0F490022D1
:102AE0000023CDE9062300240E23CDE90334CDE9EC
:102AF00001440B4B00944FF44072284618F09EFBA3
:102B0000084928461DF0F6FA204609B030BD00BF3E
:102B1000292B0000E80B002068070020D02C0020A3
:102B2000552E0000562A0200014818F09BB800BF3D
:102B30007C0500202DE9F047804621480F461AF019
:102B400065FA0646002833D000252846BDE8F08700
:102B5000237B83B12368DB680BB120469847636809
:102B600083F8069023681B69D3B963680422196847
:102B700020461AF06BFA013610345445E8D3B8F108
:102B8000000FE2D0002DDFD02846FFF76DFF05468D
:102B9000002FF7D000214FF4A4701DF05DFBF1E78A
:102BA000204698470028E0D009FA06F31D43E2E7E3
:102BB000044CDFF814A005464FF00109DDE700BF23
:102BC0002C140020F40C0200040D0200014B53F8F9
:102BD00020007047080E020008B5034608462BB1D6
:102BE000044A136000F07AFC002008BD6FF0150065
:102BF000FBE700BFAC01002010B5044C237813B9EB
:102C0000034818F02FF80123237010BDFF2B00207C
:102C10007C05002010B504460B481AF0F7F95CB1AA
:102C2000BFF35B8F094B53E8001F013943E80012E3
:102C3000002AF8D1BFF35B8F05481DF0EDFB054876
:102C4000BDE8104018F00EB824140020281400200D
:102C5000E80B00207C0500200020064BBFF35B8FB3
:102C6000014653E8000F43E80012002AF9D1BFF3F0
:102C70005B8F70472414002070B5FFF7EDFF084C00
:102C8000084E0546B44200D370BD63685B792BB132
:102C900023685B6813B12946204698471034F1E752
:102CA000F40C0200040D020010B5044C0449204647
:102CB00019F0F0FE034B1C6010BD00BF6004002043
:102CC000F40D02001C1400200D4A0E48002310B51C
:102CD00013700D4A13600D4A4FF400411360FFF763
:102CE0007BFFFFF7E1FF0A4B0A4918468B4200D3EE
:102CF00010BD1A1A5C681211013222711033F5E707
:102D0000002C002009D001002414002028140020E9
:102D1000F40C0200040D02000146002201480023C9
:102D200019F0D9BE60040020014819F072BF00BF3D
:102D300060040020024B0146186819F0BEBF00BFB6
:102D40001C140020014819F0F3BF00BF60040020EC
:102D500070B5294B187800284DD0FFF7E5FF0546E0
:102D6000002845D1254B264C1B68002B19DD1DF092
:102D7000FFFA4FF47A72A0FB020302FB0131C30B8E
:102D8000D4E9002043EA41439B1A4FEAD13140F293
:102D9000E93261EB0001934271F1000101D3FFF7C9
:102DA0006BFFD4E9003213F57A7342F10002C4E9F3
:102DB0000032BDE87040FFF7C5BF63685B7923B19F
:102DC000236829461B68204698471034B442F4D340
:102DD0002846FFF7AFFFBFF35B8F0A4B53E8001F96
:102DE000013943E80012002AF8D1BFF35B8FB9E73D
:102DF000054C064EEAE770BDFF2B0020241400208E
:102E0000E00B002028140020F40C0200040D020046
:102E100070B50D4D297861B90120FFF78BFE0B4C81
:102E20000B4EB44206D3FFF793FF0028FBD10123DA
:102E30002B7070BD63685B791BB1236820469B686B
:102E400098471034EDE700BF002C0020F40C02007E
:102E5000040D020000212DE9F0470846FFF76AFE45
:102E6000044658B340F267684FF000091DF004FCB7
:102E70001B4B1C4A1B58136033B11B4B1B68092B9F
:102E800002DD1A4817F0EEFE194FDFF860A00025AA
:102E900044B12046FFF7E8FD044618B94FF0FF386B
:102EA0004FF0FF39FFF754FF064628B9B5B942463F
:102EB0004B46504617F010FF3546E9E74FF0FF3814
:102EC0004FF0FF39D2E72B689B691BB100221146F6
:102ED000284698471035BD42F5D3E8E7054DFAE797
:102EE0000800000020140020281400207C05002089
:102EF000040D0200F40C020013B518481AF086F80D
:102F0000174B1B7873B1EFF31184202383F31288DE
:102F1000BFF36F8FFFF71CFF84F31188BFF36F8F30
:102F200002B010BD0F4B1B68002BF9D050B9002226
:102F30000023CDE900230C484FF40042002318F091
:102F400037FFEDE70928EBD107481DF065FA074880
:102F500002B0BDE8104017F085BE00BF2814002065
:102F6000002C002020140020E80B00207C0500200D
:102F700010B5064B1B68044698472146A0600448DC
:102F800019F028FEBDE81040FFF7B6BFAC010020E5
:102F900060040020044A054B9B1AB1EBD30F34BFE9
:102FA00052F8310000207047E40B0200F40C0200DC
:102FB0002DE9F04F8FB004AFC1F34A28B8600D4639
:102FC00091467B600C0DB8F1000F63D0002607F12D
:102FD00014034FF0040B4FF00A0AC7F80C80C7E93E
:102FE00007667E620193CDF808B0CDF800A007F126
:102FF0001C03F96832464846FFF722FAB0F5006F25
:1030000003461CD36C468AB0D9F8041004AB26489A
:10301000C3E9050140F2FF71D9611A464FF400710E
:103020001984224B42F8103F214833464FF4125185
:10303000FFF7BEFFA5462C37BD46BDE8F08FC0F3B5
:103040000A0804F11700184420F0070080083B60CC
:10305000FFF762FE68F35325044690B13B68154ABA
:10306000C7E9083600F1100107F11403F961CDE951
:1030700000A3CDF808B0F96807F11C034846FFF734
:10308000DFF968F353257B68B9682A46204619F0B2
:10309000FDFFD0E704F1170020F007008008FFF7DC
:1030A0003BFE0446EDE700BF6B2A0200040000016E
:1030B0009C0C02005FD001002DE9F04F87B0DDE9E4
:1030C0001279DDE9105A0446039193469846BFB140
:1030D000CDF800903B46524610210020CDF81490C8
:1030E000FEF7DCFFB0F5006F06460AD3184A194810
:1030F00040F2FF73022107B0BDE8F04F1AF01FB88D
:103100003E4605F11700304420F0070004F00704A4
:103110008008FFF701FE0BF0070BE40044EA8B1474
:1031200044EA462444EA0554054640B13FB1CDF88F
:1031300000903B46524631461030FEF7AFFF0399F0
:1031400043462246284607B0BDE8F04F19F09EBF1F
:10315000AA2A02009C0C0200406820B1034BC01A4E
:1031600040F3CF0070474FF0FF307047E40B020090
:103170000EB403B503AB014653F8042B0448019386
:1031800000F0EAFD02B05DF804EB03B0704700BF49
:10319000A1D10100CA0605D48B064CBF02490349E0
:1031A000FFF7E6BF704700BFE32A0200E22A0200F1
:1031B0002DE9F04F89B09B46149B06939DF84CA0D7
:1031C000159B0593169B179E049304460D46904647
:1031D000BAF1000F00F09D8006F48073079319F098
:1031E00033FF06F00209024600283ED091492046EE
:1031F000FFF7BEFF0746B9F1000F08D016F0440FE5
:1032000035D18D492A462046FFF7B2FF074406F024
:10321000010353B1894B8A4953F82A20894B204630
:10322000002A08BF1A46FFF7A3FF06F48073002B9D
:1032300049D006F00803002B63D1B8F1000F66D027
:10324000814942462046FFF793FF0546069B3D44D1
:10325000002B6DD1049B002B73D1F30700F1E480A8
:1032600031462046FFF796FFD8E00746C3E7774B85
:1032700018680028CAD0764B4FF47A791B68B5FBE2
:10328000F3F54FF46163B5FBF0F100FB115509FB59
:1032900005F54FF03C0CB1FBF3F203FB1211B5FB4B
:1032A000F0FEB1FBFCF300FB1E550CFB131109FBF8
:1032B00005F50091B5FBF0F56649CDE901E520463D
:1032C000FFF756FFA2E706F00803EBB1624B634934
:1032D00053F82A202046FFF74BFF0546B8F1000FB0
:1032E00005D0594942462046FFF742FF0544BBF14D
:1032F000000FABD05A495A462046FFF739FF054424
:10330000A4E74FF0000BE1E706F00805E6E74546C5
:103310009CE7BBF1010F069B06D1002B64D1049BF7
:10332000002B7BD000250CE0002BF8D04D485CE052
:103330004D48069B4D49224619F035FA049B002B57
:1033400068D0DFF82C81DFF82C91049F3146102FD4
:10335000204628BF1027FFF71DFF4FF0000B5D45EB
:1033600045DC059B49461A782046FFF701FF4FF0E0
:10337000010B1BF0070F03D141462046FFF7F8FE73
:103380005F453BD9059B494613F80B202046FFF7C4
:10339000EFFE0BF1010BBBF1100FEAD136492046CD
:1033A0004FF0000BFFF7E4FE5A46059B9A5CA2F132
:1033B00020015F2928BF2E2230492046FFF7D8FE82
:1033C0000BF1010BBBF1100F1DD01BF0070F03D148
:1033D00041462046FFF7CCFE5F455A46E5D84146B8
:1033E0002046FFF7C5FEEBE71F485546A1E74146DB
:1033F0002046FFF7BDFE0BF1010BB0E72049204648
:10340000FFF7B6FEC5E7059B3B440593049BDB1B1A
:1034100004939AD1BAF1000F7FF41FAF204609B090
:10342000BDE8F04F19F0AFBE064A05492046FFF748
:103430009FFE15E7EA2A0200EE2A0200180E02009B
:10344000A5340200E52A0200132B020034140020E8
:1034500030140020F72A02002C0E0200172B020065
:103460001D2B0200D7D10100A1D10100593D000060
:103470002A2B0200222B02002C2B02002E2B0200F2
:10348000282B020073B542F20F738B4228BF0B4604
:1034900005680F4A04460521684618F01DFD63685B
:1034A0000C495B6806460B22284619F05EFE6368ED
:1034B0003246694628465B6819F057FE636806493C
:1034C0005B681B22284619F050FE02B070BD00BF99
:1034D000B04802004D2B0200312B0200074A0021A8
:1034E0000123904206D8064A01B901231360054B17
:1034F0001860704740085B000121F2E740420F006E
:103500003014002034140020F8B5074F0D4604464F
:103510004618B44201D12846F8BD14F8011BBB6817
:1035200001485B689847F4E7BC07020008B5034808
:10353000034A0021121A1AF00DF808BDF8060020FF
:10354000CC2C00200748084A084908B5121A1AF07E
:1035500003F80748074A0849BDE80840121A19F05D
:10356000FBBF00BF00000020F8060020CC4E020088
:103570000000002000000020CC4E02002DE9F047A2
:10358000064600AF0C46002936D0E9468AB0D1E99C
:103590000012A3686D462148A8464FF0050AC5E908
:1035A0000501C5E9072348F810AF1D48424600232E
:1035B0004FF42151FFF7FCFCCD46D4E903126369B7
:1035C000AD461848C5F810A0C5E90501C5E90723AF
:1035D0001348002342464FF42151FFF7E9FCCD4642
:1035E000E369114A0E48012119F0A9FDA3690F4AA8
:1035F0000B48012119F0A3FD012E07D1EFF305833C
:103600000B4A0748103B314619F099FD21463046D8
:1036100016F088FFBD46BDE8F08700BF932B02007F
:10362000D40C0200C22B0200F12B0200002C02007D
:103630002E2C020030BFFFF7FDBF00BF2DE9F04187
:103640000B4EDFF8308006EB0807CC1B05463246F0
:10365000094920461CF065FFA01942460021083C9C
:103660001CF087FFAC6607F10800BDE8F08100BFE1
:103670000000000004000000040D0200054B5A6920
:103680009B689A421FBF044A536843F080535360BB
:10369000704700BFA42B002000ED00E070B52A4C5D
:1036A00006460D4629482A4919F063FFA36ADB063E
:1036B00047D52648274919F05CFF1120A36A1C074B
:1036C00004D52248244919F054FF12201E4CA36A45
:1036D000990712D521491D4819F04BFF636BA26A67
:1036E000120609D51E4A1948012119F028FD1EB1FC
:1036F000A36A23F08003A3621320134CA36ADE079E
:1037000004D51248174919F034FF1420A36A9C0607
:1037100004D50E48144919F02CFF15200A4B9A6A5B
:10372000D10658BF9A6A9A6A920642BF5A6A22F430
:1037300000525A629A6A42F0FF029A6200232B708A
:1037400070BD1020BAE700BF00ED00E0D40C02000D
:10375000412C0200572C02008A2C02009D2C0200F2
:10376000B52C0200CB2C0200EA2C020010B5204C34
:103770002049214819F0FDFEA36A990136D51E485B
:103780001E4919F0F6FE1E20A36ADA0104D51A4874
:103790001B4919F0EEFE1F20154CA36A1B0304D52C
:1037A0001548184919F0E5FE2120A36A590304D5EC
:1037B0001148154919F0DDFE22200D4CA36A9A0329
:1037C00004D50D48114919F0D4FE2320A36ADB0368
:1037D00004D509480E4919F0CCFE2420044A936A06
:1037E0006FEA03436FEA1343936210BD1D20CBE7DA
:1037F00000ED00E0192D0200D40C0200312D020072
:10380000442D02005E2D02007C2D0200A12D02003D
:10381000BB2D020070B5294C06460D4628482949A3
:1038200019F0A7FEA36AD9043CD52548264919F00A
:10383000A0FE1720A36A1A0504D52148234919F0D0
:1038400098FE18201D4CA36A9B0512D51C482049E0
:1038500019F08FFEA36BA26A100409D51D4A1848FF
:10386000012119F06CFC1EB1A36A23F40043A3628A
:103870001920124CA36A590504D51148164919F0AC
:1038800078FE1A20A36ADA050ED50D48134919F0FF
:1038900070FE1B20094A936A43F47F43936200231E
:1038A0002B7070BD1620C5E7A36A9B04F2D50448AF
:1038B0000B4919F05EFE1C20ECE700BF00ED00E0B4
:1038C000D40C0200E62D0200FC2D02008A2C02001E
:1038D0000D2E0200262E02003B2E0200562E020064
:1038E000EA2C02002DE9F041654B8AB0D3F8048040
:1038F00000AF0446C8F30805002686F31188BFF31D
:103900006F8F02F07F43B3F17F4F07D102F00C03BA
:10391000082B12D15B495C4819F02BFE0026344677
:103920000023FB71EB1E092B00F28980DFE803F016
:103930000A7F827B87878787878510074CBF0C4665
:103940000126EDE7514950484D4D19F012FE002374
:10395000FB71EB6A9A0705D54D494B4819F009FEF2
:10396000002331E0EB6A002B01DA4A49F5E7EB6A04
:103970005B00F5D54849444819F0FBFD6B69A26925
:1039800043F480736B61BFF34F8FBFF36F8F6B692D
:1039900032F8022C23F480736B61BFF34F8FBFF3B7
:1039A0006F8F4DF602739A4207D0AB6ADBB26BB3EE
:1039B000F91D0120FFF772FE37E02368374A3248CD
:1039C000012119F0BCFB2368FA79DAB907F108057F
:1039D00004F1200C206861682A4603C2083464455B
:1039E0001546F7D17A6A002E45D0C2F3080121B9F5
:1039F0006FEA52226FEA42227A6207F10801184602
:103A0000FFF7BCFD2837BD46BDE8F081AB6A13F473
:103A10007F4F04D0F91D0120FFF7FCFE05E0AB6AE3
:103A2000B3F5803F9CD3FFF7A1FE0346CCE7F91D19
:103A30000020BFE7F91D0020EEE719498DE7194A7C
:103A4000194B18F4F87FE8468AB018BF13466A4647
:103A50001649C2E905134FF400731384103D144B4B
:103A6000D56142F8103F084800234FF41151FFF789
:103A70009FFAC54674E722F4FF7222F00102BBE709
:103A800000ED00E09C2E0200D40C0200C72E0200C4
:103A9000DE2E0200FF2E02000D2F02002C2F02004E
:103AA000482F0200832E02006E2E02006C2F0200AF
:103AB00004000001044B5A6942F010025A615A692D
:103AC00022F008025A61704700ED00E0EFF3088031
:103AD000EFF3098101B57246FFF704FF01BD00BF96
:103AE0000B4880F3088815F083FA202080F31188B2
:103AF00008484FF40061401880F30988EFF3148000
:103B00000221084380F31488BFF36F8F00F0ACF8F4
:103B1000B04B0020703E0020084B9B6883420BD1C5
:103B2000EFF3058343B1064B5A6842F080525A6066
:103B30005A6A22F400425A6217F044BEA42B0020B5
:103B400000ED00E011498A684FF030001044EFF3B7
:103B5000098C80E8F01F202080F31288BFF36F8F5C
:103B60000B4F4FF000664A698A603E60906E094CC8
:103B70002060D06E0023D36680F3118802F13000FC
:103B800090E8F01F8CF3098870470000A42B0020F8
:103B900004ED00E0641400201EF0040F0CBFEFF3EE
:103BA0000880EFF30980816911F8021C0229FFD017
:103BB00001B5724619F0D2FC01BD00BF40B2002829
:103BC00007DB044A4109012300F01F00834042F84B
:103BD0002130704700E100E040B200280CDB4309CF
:103BE000064900F01F0020330122824041F82320C3
:103BF000BFF34F8FBFF36F8F704700BF00E100E04E
:103C0000054B420900F01F0053F82220012303FA5C
:103C100000F01040704700BF00E100E040B2002813
:103C2000A8BF00F1604001F10101B8BF064B4FEAA7
:103C30004111ACBF00F5614000F00F00C9B2B4BF44
:103C4000195480F80013704714ED00E0044B054A46
:103C500023F07F039360BFF34F8FBFF36F8F7047E5
:103C60000000000000ED00E008B5FFF7EFFF0B4A91
:103C7000D2F8883023F47003C2F88830EFF314834D
:103C800023F0040383F31488BFF36F8FFFF74EFC18
:103C9000FFF758FC00F042F816F064FD00ED00E07C
:103CA00042F8203C009B42F81C3C0A49019B42F828
:103CB000183C029B42F8143C21F001014FF0807344
:103CC00042F8043C42F8081C0023203A0265C3660F
:103CD000704700BF1928000000B50B4B98600B4BD4
:103CE0001546826E1A600E462C4686F3098800201F
:103CF000034B98472046002100220023014C204717
:103D000089D5010019280000A42B0020641400208C
:103D1000014B10221A61704700ED00E004480023B7
:103D20002021C2180133302B82F80013F9D17047DB
:103D300000E100E008B5EFF30583064A103B02EB13
:103D4000C30152F8330049688847BDE80840FFF7CF
:103D500095BC00BFDC080200F0B587B007460E46F0
:103D600014460021102268461D461CF002FC022366
:103D70008DF802302A46054B019321466846CDE96D
:103D8000047618F0D3F807B0F0BD00BFCFD501001E
:103D900008B5024B1B689847002008BD6814002036
:103DA000034B044A1860937843F002039370704702
:103DB00068140020B801002008B50649064821F023
:103DC0000701C1F1005202F5003218F0AFFC0020EB
:103DD00008BD00BF075A00206C14002070B541696F
:103DE000867A0B4D044659B1437ADB0706D42C235F
:103DF00003FB06535B6A1B689B689847002363615B
:103E00002C20214606FB0050BDE870401CF041B854
:103E1000C4050020024B2C2202FB0030704700BF7B
:103E2000C4050020827A064B2C2101FB02339A6ADA
:103E30001B7F1B33801A23F00303B0FBF3F07047A2
:103E4000C405002038B5074B827A2C2404FB0233CA
:103E50005B6AD3E901240C601568FFF7E3FF04FBFC
:103E6000005038BDC40500202DE9F04385B005465B
:103E70006846039190461C461CF07CFADDE9006719
:103E8000EFF31189202383F31288BFF36F8F6B8BBD
:103E9000002B41D02A8B9A4225D9002200232846A4
:103EA00016F0AEFE0446F0B189F31188BFF36F8FB0
:103EB000039B002B41D032463B4668461CF07FFAFC
:103EC000A27A264B2C2101FB023320465B6A1B6839
:103ED00003A91D68DDE90023A847606170BB204687
:103EE000FFF77CFF24E0698B4B1E6B8389F31188FD
:103EF000BFF36F8F2B7F2A8BAC6A1B3323F0030336
:103F0000521A02FB0344154B154AEB1A9B105343FC
:103F1000A3722B7FE372CBE789F31188BFF36F8F16
:103F200023464246284616F06BFE04460028BFD1C1
:103F30000024204605B0BDE8F0836361012300251D
:103F40002381039B6382E27A6560294604F11800AD
:103F50001CF00FFB63692582E360EAE7C4050020DB
:103F6000A38B2EBA70B50D4C2C2500B970BD037A09
:103F70004668002BFAD0013BDBB20372002BF5D16F
:103F8000C3604360837A05FB03431B6A13B1984700
:103F90003046EAE7FFF722FFFAE700BFC40500203A
:103FA000024B0122C3F840250020704700E0014089
:103FB00020B1034B800143F001031847704700BF55
:103FC000600D0200F7B506460D460D4883688AB2BB
:103FD0001B6831469847002810DA00240CE02F1B9C
:103FE000042F28BF04271BF0E2FB3A46019001A9E9
:103FF00030191CF096FA3C44A542F0D803B0F0BD4D
:104000009C0702000E4B402970B528BF40210D4C83
:1040100046181D46B04203F1020304D1002305F8FF
:104020001130074870BD02781209A25C03F8022C17
:1040300010F8012B02F00F02A25C03F8012CE9E753
:10404000202C0020F92F020030B503788BB00446F5
:1040500007AD032B21D8DFE803F0021A1C1E12491A
:104060002846FCF7B7F8059563780493A378039383
:10407000E37802932379019363790093A3790B4A40
:104080000B481E2117F028FF09480BB030BD094925
:10409000E6E70949E4E70949E2E7094A0A2128462F
:1040A00017F01AFFDFE700BFB42F0200D62F02007F
:1040B000022C0020BB2F0200C22F0200CC2F0200D6
:1040C000704002000378012B30B513D0022B27D0AB
:1040D0007BB9194B0A4603F1100453F8045B42F80C
:1040E000045BA342F9D11B78137043884B731B0AFE
:1040F0008B7330BD104B0A4603F1100453F8045B78
:1041000042F8045BA342F9D11B78137043684B73E8
:10411000C3F307221B0CCB731B0A8A730B74E8E7EB
:1041200000F1100350F8042B41F8042B9842F9D108
:1041300003780B70DDE700BF0A30020008B519F004
:1041400092FB17F045FA044B1B680BB10A20984705
:10415000BDE8084017F050BA7814002038B504467E
:10416000084819F045FA054648B1631EDBB21F2B1B
:1041700096BF054A0021D15C0C3019F0BAFA2846E6
:1041800038BD00BFA00600201B3002000F2810B56C
:104190000CD80D280CD90A4819F02AFA044618B18F
:1041A00004210C3019F0A5FA204610BD1328F2D0D6
:1041B00009B10448F0E7BDE810400220FFF7CEBF88
:1041C000CC0600201C060020C368034A1B78034865
:1041D000022119F0B8BB00BF4A300200440C0200B3
:1041E00070B5C6683378B6F8014083B90F21204610
:1041F00002F040FCF378054650B90A4A118831B9FB
:104200006FEA04506FEA10501080074A137070BDB7
:104210004372012102F02EFB2846BDE8704002F0F7
:10422000D5BA00BFD82B0020A12C002070B5C368E0
:104230001D78BDB9B3F801600F21304602F01AFCB9
:10424000044638B93346084A0848BDE870400121A1
:1042500019F079BB294602F00DFB2046BDE87040FD
:1042600002F0B4BA70BD00BF72300200440C02000C
:1042700010B5C368B3F801400121204602F0FAFBF3
:1042800038B92346054A0648BDE81040012119F017
:104290005ABBBDE8104002F099BA00BF9830020046
:1042A000440C020010B501210C3019F04DFABDE8A4
:1042B00010400378024A0348012119F044BB00BFB3
:1042C000BC300200440C0200014610B5084819F049
:1042D00093F9084908481BF087FE031E06DABDE87B
:1042E0001040064A0648012119F02DBB10BD00BF41
:1042F0004C010020D8010020200C0020DE300200FC
:10430000440C020010B5084C0146062294F86F00D8
:1043100002F0C6FE38B994F86F000449BDE81040B9
:10432000052202F0BDBE10BD000000209A2F020041
:10433000024A0348012119F004BB00BFFB30020010
:10434000440C0200B0B50B460D8A00AF0446294666
:10435000D868FFF757FE8AB06A46094BC2E90534B0
:1043600040F202439384074BC2E907504FF43251A5
:1043700042F8103F044819F0F7FABD46B0BD00BF3F
:104380001531020005000001440C020070B5C5683B
:10439000B5F801600121304602F06CFB044638B9E3
:1043A00033460D4A0D48BDE87040012119F0CBBAE3
:1043B0002B783BB9D5F80330C0F89530D5F80730E5
:1043C000C0F89930201D4FF4003119F0BEFA204694
:1043D000BDE8704002F0FAB998300200440C0200C7
:1043E000B0B53C2800AF04461AD101F01DFE6FF0B5
:1043F0008001103019F0BBFA0020FFF783FF05465B
:1044000030B9124A1248012119F09BFABD46B0BDDD
:104410004472002102F02EFA284602F0D7F9F5E79F
:104420006D468AB06A460B4BC2E905300A4BD36130
:1044300040F201331384094B42F8103F04484FF413
:10444000125119F091FAAD46E0E700BF3731020092
:10445000440C020058310200E42A0200040000016A
:104460002DE9F74FDFF81CA1BFF35B8F804689462B
:10447000174600235AE8004F4AE80032002AF9D1D3
:10448000BFF35B8F264644B93F4A4048434601216B
:1044900003B0BDE8F04F19F056BA2046FFF7C2FC52
:1044A0003B4D4FF00C0B0BFB0050438843451FD096
:1044B0002046FFF7B7FC0BFB00504388354A0093BA
:1044C00032484346012118F044FEBFF35B8F5AE89F
:1044D000003F4AE80062002AF9D1BFF35B8F002B4E
:1044E0004DD01E46304603B0BDE8F04FFFF73ABD51
:1044F000A74208D0204619F076F83A8AF96804F104
:104500000C0019F0EDF82046FFF78CFC0C2707FB98
:1045100000504368ABB1B9F1000F12D12046FFF74C
:1045200081FC07FB005001214268D2E90003127AA6
:1045300003F01F07B9405B09DAB100EB830019F003
:1045400004FA2046FFF76EFC0C2707FB0050836837
:10455000002BC7D02046FFF765FC784305F8009094
:104560002046FFF75FFC07FB0055A86816F07AFBB2
:10457000B8E7C94300EB830019F0F9F9E1E703B0AC
:10458000BDE8F08F4801002074310200440C0200A5
:104590007C1400209C31020037B502EBC3030446B3
:1045A00008469A4202D16FF05E0010E0114611F801
:1045B000085BA54211D1038A5178994209D908486C
:1045C000084A0094012118F0C4FD6FF0150003B0F3
:1045D00030BD536898470020F9E70A46E1E700BF7D
:1045E000440C0200CF3102002DE9F8430C4616F0CE
:1045F000EFFFE168238A0A78022A71D0042A0BD0DF
:1046000013463C483C4A012119F09DF92046FFF72A
:10461000A9FC6FF015040AE0022B0DD8374A354883
:10462000012119F090F92046FFF79CFC002416F0B8
:10463000E3FF2046BDE8F88348783E280AD1032BE3
:1046400001D12F4AEBE7CB78012B01D00A2B47D1C0
:10465000032604E019F063F90646F0073ED504F19D
:104660000C05284619F088F8012107462846B4F8B9
:10467000109019F061F80221284619F065F880467B
:1046800000783E2816D1E3681B78012B2CD00A2B2A
:104690002AD002251B4A1C491C4841F2F40318F099
:1046A000E9F8002383F31188BFF36F8F03231846C3
:1046B00002DF04E019F033F9C1070546EAD5144AD0
:1046C00098F800000623214619F05DF9AA070DD5D8
:1046D0006369A4F8109013FA87F7E760B307A5D5CC
:1046E0002046FFF7F1FDA1E70325E8E72046FFF7A5
:1046F00039FCF3E7440C020097320200F13102006A
:104700000D3202002D320200613202007A320200C4
:10471000F40E020010B5012104460C3019F014F813
:104720002146034A0078BDE81040022319F02BB956
:10473000240F020073B53E4818F073FF04460028AA
:1047400073D000F10C05284619F006F8022803463C
:1047500003D0042847D0374A03E0238A032B05D827
:10476000354A3648012119F0EEF813E004212846B5
:1047700018F0EAFFFF23428806882376238AC6F3CF
:104780000B009A42608309D02C48009201212C4AE8
:1047900018F0DFFC2046FFF7E5FB12E00F2102F0E6
:1047A00069F9054610B9638B264ADAE702F088F901
:1047B000320B20762146284601F08AFF284602F077
:1047C00005F8214BD3F84C317BB3204920481BF02E
:1047D0000BFC031E29DA1F4A1848012102B0BDE86C
:1047E000704019F0B0B82846022118F0ADFF054618
:1047F00000783E2812D019F092F810F002060DD180
:10480000154A1649164840F6644318F033F886F303
:104810001188BFF36F8F0323184602DF114A2878EF
:104820000423214619F0AFF8B4E702B070BD00BF11
:104830004C01002040330200AB320200440C020065
:10484000CC320200F032020000000020D80100202B
:10485000200C0020DE3002002D3202001233020054
:104860007A320200340F020010B5012104460C30E8
:1048700018F06AFF2146034A0078BDE8104006237D
:1048800019F081B8540F0200F8B5012100AF0446B9
:104890000C3018F059FF0678114A002321463046A3
:1048A000FFF77AFE5F3018D1258AE0682946FFF7C6
:1048B000A9FB6C468AB06A460A4BC2E9053640F24B
:1048C00002439384084BC2E907504FF4325142F837
:1048D000103F064819F048F8A546BD46F8BD00BF90
:1048E000840F02005433020005000001440C020052
:1048F0002DE9F04F83B0D0F80C80018A98F8004081
:10490000012303EB84038B4200AF62D96D468AB06A
:104910006A463248C2E907310523C2E905044FF46B
:10492000215142F8103F2E4819F01EF8AD460C37C1
:10493000BD46BDE8F08F2B4A29484B46012119F0AE
:1049400002F8013598F800309D42F0DA08EB850353
:104950000F21B3F80190B3F80360484602F08AF8DB
:1049600004460028E7D000F1BC0936B1636943B9B9
:104970001B485A46012118F0E4FF204601F026FFAB
:10498000DFE7A1691A6862618B4208BFA261204615
:104990007B6001F03DFE16F065F97B68C3F800A06E
:1049A000226A9AB9C4E90733BFF35B8F59E8003F25
:1049B000013B49E80032002AF8D1BFF35B8F0021A8
:1049C0002046013E01F030FEB6B2CEE7136023620E
:1049D000EAE70025DFF810B0AA46B3E78633020005
:1049E000440C0200B1330200CD33020073B5C56838
:1049F000B5F801600121304602F03CF8044640B9A8
:104A00003D4A3E483346012102B0BDE8704018F0EF
:104A10009ABF2B781A2B00F1040619D1C378012B09
:104A20004ED14FF48041304618F08FFF42040FD42E
:104A3000D4F8883000936946D4F89030019320462A
:104A400002F014FE204602B0BDE8704001F0BEBE88
:104A50002B78ABBBB5F80320A4F8862093B2B5F849
:104A60000520A4F88C20B5F80720A4F88E209A1F02
:104A700092B240F67A418A4204D9214A1F48022163
:104A800018F061FFB4F88C30B3F5FA7F04D31D4AF7
:104A90001A48022118F057FFB4F88E30A3F10A0229
:104AA00092B240F676418A4204D9174A134802214D
:104AB00018F049FF6FF48051304618F058FF17E0A6
:104AC000BFF35B8F6368BFF35B8FDB04F2D52B789A
:104AD000202BEFD194F89430002BEBD0013B84F8DD
:104AE00094304FF42032002304F1400016F034FBE0
:104AF000204602F0D3F9A5E798300200440C0200EA
:104B0000E43302000C34020033340200094BBFF3DB
:104B10005B8F1A68BFF35B8F02F00B02BFF35B8FF2
:104B200053E8001F43E800200028F9D1BFF35B8F52
:104B3000704700BFD400002010B5C1E900239DF8E4
:104B400008300B720C46FFF76DF9034B0C2202FB89
:104B500000335C6010BD00BF7C140020F8B5024635
:104B60000B46104818F044FD0446C0B104210C3037
:104B700018F0A5FD2046FFF755F90B4D0C2707FB54
:104B80000050002646802046FFF74CF907FB0050F6
:104B900086602046FFF746F907FB00556E60204609
:104BA000F8BD00BF740600207C14002070B50C4DC9
:104BB00006460FCD90B06C460FC40FCD0FC40FCD7D
:104BC0000FC495E80F000F2E84E80F009BBF10ABB9
:104BD00003EB8606034856F8400C10B070BD00BFCA
:104BE000100D02005F340200034B0146D3F86C0144
:104BF00082689268104700BF000000202DE9F84F3E
:104C0000042100AF454818F0A0FE6D4688B06A4602
:104C1000434B5361434B93614FF400739383424C76
:104C2000424B42F8103F4FF4E6514148414E18F0D4
:104C30009BFE414BE279AD462046012A88BF1E46C5
:104C4000FFF702FA8AB06A463C4BD061C2E90536EA
:104C50003B4B13623B4B42F8103F35483A4EDFF86E
:104C6000EC80DFF8CC904FF4235118F07DFEA34682
:104C7000AD460125E3799D420BF1070B38DB94F833
:104C800070502846FFF792FF6E468CB0B4F8721051
:104C9000B4F876306A46DFF8B8C05362C2E907510B
:104CA0002C4B4FF40075C2E905C015854FF45351E4
:104CB00042F8103F1E4818F057FEB54694F8716050
:104CC0003046FFF773FF8AB0B4F874306A46224961
:104CD0009584C2E90763214BC2E9051042F8103FF1
:104CE00013484FF4335118F03FFEBD46BDE8F88F2E
:104CF0005846FFF7A9F9EA468AB06A4640F20133FE
:104D0000C2E90565D06113844FF4135142F8108F46
:104D1000484618F029FE0135D546ABE7D4000020FF
:104D20006B3402007D34020000000020030000010B
:104D3000440C0200E42A02006734020088340200B6
:104D40000002010304000002973402000400000185
:104D5000A834020006000001E6340200050000014C
:104D6000004870474F290200014816F087B900BF7C
:104D7000C801002070B505460C4659B94FF0FF3008
:104D80004FF0FF31FFF7EAFE044618B96FF06805EF
:104D9000284670BD2046FFF745F8194B0C2202FB50
:104DA0000033A61830465D8018F0E6FC03280BD9C6
:104DB0000321304618F0AFFC0580238A033B837043
:104DC0000121304618F0AFFC40F635439D420FD12B
:104DD0002046FFF709FF05460028D9D00346094AB7
:104DE0000948012118F0AFFD2046FFF7BBF8CFE7D7
:104DF000064821461BF042F80025FFF7B5FFC7E73C
:104E00007C1400200D350200440C020054010020E7
:104E100073B5C368D9789A781E8842EA0122ADF842
:104E2000002059791A7942EA0122ADF80220D97995
:104E30009A7942EA0122ADF804201A7A5B7AB4B278
:104E400042EA032301212046ADF8063001F012FEAC
:104E5000054658B91D481E4A0121234618F073FD26
:104E60000221204618F0DEFD02B070BD694602F056
:104E70005FF838B91E21204618F0D4FD284601F00D
:104E8000A5FCF1E74FF0FF304FF0FF31FFF766FE72
:104E900004460028F2D00E210C3018F01BFC002331
:104EA0000680C0F80A30BDF800304380BDF80230FB
:104EB0008380BDF80430C380BDF8063003812146ED
:104EC00042F22000FFF756FFD8E700BF440C020073
:104ED0009830020038B502460B462B4DD5F85411D8
:104EE00009B9002038BD05F5987015F0F5FE0028C9
:104EF000F7D10022002305F5AA7015F081FE0446C3
:104F000068B9224A2249234840F6744317F0B2FC9C
:104F100084F31188BFF36F8F0323184602DFD5F89F
:104F200048315BB11C4A1D48012118F00AFDD5F833
:104F30004801FFF717F80023C5F84831204618F05C
:104F400086FBC5F848012046FFF74EFE0346C8B170
:104F5000134A1248012118F0F6FC124815F082FE9F
:104F60002046FEF75FFF104B0C2202FB00335888EF
:104F700018B122461F21FFF773FA2046FEF7F2FF11
:104F8000FFF7F2FE0120ADE7000000202D32020005
:104F90003E3002007A3202002F350200440C02003B
:104FA0000D350200300100207C1400202DE9F04F67
:104FB00087B0064600AF90460C4671B94FF0FF30FF
:104FC0004FF0FF31FFF7CAFD044668B96FF068057E
:104FD00028461C37BD46BDE8F08F887AFEF71AFFD9
:104FE000524B834240F09C800122002138461AF047
:104FF0005EFF2046FEF716FFDFF834B10C2303FBFB
:1050000000B08760204618F022FB01463046FFF7CB
:10501000B1FE054618B12046FEF7A4FFD8E71BF005
:105020002BFB444B1A58444B9A421ED143481AF06A
:105030003AFF002182464FF4A020FFF74BFF814644
:1050400088B93F4A3F4940484FF4F97317F012FCC2
:105050003E48314617F00EFC89F31188BFF36F8F7D
:105060000323184602DF5445E0D14FF4A022002369
:10507000384615F031FE814698B14FF4FC73304A42
:105080003349314817F0F6FB32484A46314617F0AB
:10509000F1FB002383F31188BFF36F8F03231846BE
:1050A00002DF2046FEF7BEFE0C2358431BF800909B
:1050B000B9F1000F2DD06D468AB06A46264BC2F872
:1050C0001C90C2E90536254B136240F202439384DB
:1050D000234B42F8103F23484FF4325118F044FC60
:1050E0002046AD46A9F10909FEF73CFFB9F1090FC9
:1050F0000CD8DFE809F0180B0B08050B0B0B0B1590
:105100006FF00B0564E76FF00C0561E76FF00405C5
:105110005EE7B8F1000F3FF47EAFC8F8004057E7F4
:105120006FF0150554E76FF06E0551E77406002027
:105130007C14002008000000D81200205401002038
:105140002D3202004A3502007A3202005235020046
:10515000723502007B350200C0350200E42A0200ED
:1051600005000001440C0200F0B5002285B0114694
:1051700002AF40F60340FFF719FF044600285BD159
:10518000FFF7C4FC21463A1D41F20300FFF70EFF72
:105190000446002850D17A68AE4DD168D1F801009C
:1051A000D1F8051005F1780303C31046FEF7DAFEC7
:1051B00021463A1D41F20100FFF7F8FE044600289F
:1051C0003AD17868C3685A7885F870205A88A5F86B
:1051D00072201A7985F87120B3F80720A5F8742099
:1051E000B3F80530A5F87630FEF7BCFE21463A1D2F
:1051F00041F20200FFF7DAFE0446E8B9D7F804C02E
:10520000DCF80C2005F18006531C413218685968FF
:10521000344603C4083393422646F7D16046FEF76E
:10522000A1FE95F87C3058060AD48B4A8B480121A0
:1052300018F087FB6FF0120420460C37BD46F0BD16
:105240003A1D002142F20300FFF7B0FE0446002899
:10525000F2D17A68824BD168D1F80100D1F80510FB
:1052600003C31046FEF77EFE21463A1D42F20200BD
:10527000FFF79CFE04460028DED17E68F468B4F88F
:1052800001309AB292B1E27882B1A5F80431E378A4
:10529000032B06D0032200927048724A022117F0B5
:1052A00058FFE278704811461AF001FE3046FEF7CA
:1052B00059FE95F87C601F2316F02006A5F82031D2
:1052C00018D14FF0FF304FF0FF31FFF747FC044695
:1052D00000287DD002210C3018F0FCF90123037066
:1052E00046702146324640F66D40FFF75FFE0446A9
:1052F0000028A1D195F89C30190712D53A1D00213C
:1053000042F21C00FFF752FE0446002894D1786850
:10531000C368D3F80120D3F80530C5E93823FEF778
:1053200021FE4FF0FF304FF0FF31FFF717FC04462E
:1053300000284DD008210C3018F0CCF995F8D83061
:1053400095F8D92013F0020F14BF2F230F2312F06A
:10535000090F18BF43F40063002203701B0A437057
:105360008270C270027142718271C271214642F232
:105370000100FFF71BFE044600287FF45DAF95F89F
:105380007C30B5F804119A0625D4C9B93A1D41F20A
:105390000500FFF70BFE044600287FF44DAFB5F87B
:1053A00004317C684BB9E368B3F80120A5F8042107
:1053B0009A882D4811461AF07AFD2046FEF7D2FD54
:1053C0004FF0FF304FF0FF31FFF7C8FB044660B9E4
:1053D0006FF0680430E70029F2D1244A1F48012108
:1053E00018F0AFFA6FF0040426E708210C3018F02B
:1053F00071F91023037088230022437002262023B2
:105400008270C670027142718271C371214640F68A
:105410000140FFF7CBFD044600287FF40DAF0146A5
:105420003A1D4FF60140FFF7C1FD18B3104A0B4873
:10543000022118F086FA00F0C7FC044600287FF429
:10544000FBAE01F011FF044600287FF4F5AEFFF734
:10545000D5FBF1E600000020DF350200440C02001D
:10546000D80000200336020008010020493602005F
:105470006C3602007B68DC68B4F80130032B96BF01
:10548000434A444952F823106E468AB002AA424861
:10549000D3614FF400731384404BC2E9050142F815
:1054A000103F3F484FF4135118F05EFAB4F8012052
:1054B000B4F80330022AB54649D1052B47D8394AFA
:1054C00052F823106E468AB002AA3748D3614FF4CF
:1054D00000731384314BC2E9050142F8103F4FF4C9
:1054E00013512F4818F040FA637994F806C0D4F8A5
:1054F0000900032BB54698BF2C4AB4F8076094BF47
:1055000052F8231023496C468CB002AADFF8A0E0C1
:10551000C2E9073C4FF400739385264BC2E905E1CD
:10552000C2E909604FF4735142F8103F1C4818F06B
:105530001BFAA5467868FEF715FD3A1D00214FF6C7
:105540000240FFF733FD044618B11B4A6FE71149CB
:10555000B8E77868C368B3F80130A5F8C130FEF742
:1055600001FD95F8C1305B077FF565AF3A1D214617
:105570004FF60340FFF71AFD08B1104A57E7786865
:10558000C3685B7885F8C030FEF7ECFC53E700BFDA
:10559000E40E02005F3402009036020004000001B5
:1055A000440C0200CC0E0200A9360200BC0E020020
:1055B000C136020007000001EE3602001737020074
:1055C00010B5FFF7D1FD034B1B6813B1BDE81040C8
:1055D000184710BD9414002073B52A4D0646D5F81F
:1055E0006C011AF0CDFA48B9274A2848012118F071
:1055F000A8F96FF01204204602B070BD6FF00201EE
:1056000005F1D40018F0B3F9012118F09EF910EA61
:10561000010434D11E4B1E600A4605F598701AF03D
:1056200046FC05F5AA701AF0EBFB1A481AF007FDC4
:105630001949184800946FF007034FF4966215F06B
:1056400023FD164913481AF055FDD5F86C0114498D
:1056500083681B689847044630B10346114A0B48DB
:10566000012118F070F9C6E726B902B0BDE8704014
:10567000FFF77ABD05F1C40015F000FDBBE76FF040
:105680007704B8E70000002040370200440C020015
:1056900094140020200C0020D02F00205837020046
:1056A000E9450000613702002DE9F04784B05C4B0A
:1056B000B0F80190198849F4704291424FF0000609
:1056C00002BF1E80574B1E78C378012B08BF564B74
:1056D00000F1040800AF054640460CBF93F86F4048
:1056E000002418F0BCF8414668B307F1080018F030
:1056F000ABF8D5F81130C7F80130B5F81530A7F878
:1057000005304FF0010AEB78012B31D04046FEF70F
:105710009BFC6C4688B06A46444BC2E905304FF4A6
:1057200000739383424B434842F8103F4FF4E251D9
:1057300018F01AF91321A546484618F08FF91037CA
:10574000BD46BDE8F087204618F02CFA03460068F5
:10575000B8609A889B796868BA81BB73B8F80420EE
:1057600098F8063095F804A03860BA80BB71CAE793
:1057700007F10800FEF7C6FD04460028C6D0034620
:10578000B5F8012023F8702BB868BA7BB989206777
:105790009A719980B5F81730A4F88630B5F81930A9
:1057A000A4F88C30B5F81B30A4F88E30EB78E37099
:1057B0000022012B627222D187F800A0BA88BB793F
:1057C0003868A4F87B2084F87D30C4F8770000F0B6
:1057D0002BFC237A144AC3EBC3039918D358C4F89B
:1057E0007E308B88A4F882308B7984F88430D2E9BB
:1057F000381303F03F03194301D000F0ABFD07213C
:10580000204601F037F826B166720121204601F0EA
:1058100031F8204601F08EF9204600F0D7FF8EE7E0
:10582000D82B0020A12C0020000000207D37020092
:1058300003000001440C020000B5C368187889B069
:1058400020B109B05DF804EBFEF7CABDB3F8012042
:10585000ADF80120DA788DF800008DF80320B3F858
:105860000B20ADF81720B3F80D20ADF81920B3F8D0
:105870000F20ADF81B205A7C8DF81D205868019030
:105880001A899B7A8DF80A30094BADF808206846D2
:105890001A689B88CDF80B20ADF80F30CDF8112099
:1058A000ADF81530FFF700FF09B05DF804FB00BF4D
:1058B000AE2F020038B5042104460C3017F044FF27
:1058C000034640885D7818B119782246FEF7C8FD76
:1058D00035B1044815F0C6F9BDE83840FFF744BAC1
:1058E00038BD00BF30010020B0B50321044600AF31
:1058F0000C3017F029FFE3680578B0F8010019783B
:1059000040F63543984215D16C468AB06A460F4B33
:105910000F48C2E905310F4BD36140F201331384C4
:105920000D4B42F8103F4FF4125118F01DF8A546E8
:10593000BD46B0BD10B12246FEF792FD002DF7D056
:10594000064815F08FF9FFF70FFAF1E799370200D3
:10595000440C0200E42A020004000001300100208F
:1059600070B54FF0FF320D464FF0FF330021064671
:10597000FEF70CFC044660B90A4A0B490B481A238F
:1059800016F078FF84F31188BFF36F8F0323184656
:1059900002DF022104F10C0017F09CFE0670457036
:1059A000204670BDDC3802003E3002007A32020030
:1059B000F8B50A4DEF7906460024E3B29F4202D8BB
:1059C0006FF0010007E02946304618F0E1F807358E
:1059D000631C08B12046F8BD1C46EEE7000000201D
:1059E00070B51A4E0622314605461AF0CAFD38B384
:1059F0004FF0FF304FF0FF31FFF7B0F8044608B327
:105A0000062229460C3017F06BFE2146002242F296
:105A10000500FFF7CBFA044648B110F10D0F04D191
:105A20000B4A0C48022118F0BBF8204670BD3346E3
:105A30002A6843F86929AA88B280012283F868207D
:105A40000024F2E76FF06804EFE700BF6900002070
:105A5000123902004C0C020037B504460D4689B1DC
:105A60001849284618F094F860B9174A2968C4EB19
:105A7000C404A3181151AA889A80AA799A710020A7
:105A800003B030BD684617F0D1FE0028F8D1684653
:105A9000FFF78EFF0028F5DA0B4A00989DF80610F4
:105AA000C4EBC404A3181051BDF804009880997188
:105AB000002DE4D012592A609A88AA809B79AB7194
:105AC000DDE700BFA12F02000000002070B50446F2
:105AD000B1B9C0B1204918F05BF8A0B92046FFF772
